:100000000C9471000C9499000C9499000C94990034
:100010000C9499000C9499000C9499000C949900FC
:100020000C9499000C9499000C9499000C949900EC
:100030000C9499000C9499000C9499000C949900DC
:100040000C94D1040C9499000C9441050C941B055C
:100050000C9499000C9499000C9499000C949900BC
:100060000C9499000C9499000000000023002600D5
:100070002900204661726E73776F7274683D005775
:10008000504D3D0053656E64696E673A2000000074
:100090000000240027002A0000000000250028009E
:1000A0002B000404040404040404020202020202F9
:1000B000030303030303010204081020408001022C
:1000C00004081020010204081020000000080002AB
:1000D0000100000304070000000000000000730599
:1000E000760B11241FBECFEFD8E0DEBFCDBF11E0ED
:1000F000A0E0B1E0E4E5FCE102C005900D92AA3C6D
:10010000B107D9F722E0AAECB1E001C01D92A13EEF
:10011000B207E1F710E0C0E7D0E004C02197FE018C
:100120000E94110CCF36D107C9F70E9403060C9428
:100130001D0E0C940000833081F028F4813099F07A
:100140008230A9F008958730A9F08830C9F0843052
:10015000B1F4809180008F7D03C0809180008F7703
:1001600080938000089584B58F7784BD089584B509
:100170008F7DFBCF8091B0008F778093B000089582
:100180008091B0008F7DF9CF1F93CF93DF93282FFD
:1001900030E0F901E653FF4F8491F901EA54FF4F33
:1001A000D491F901EE55FF4FC491CC23A9F0162F3D
:1001B00081110E949B00EC2FF0E0EE0FFF1FE8562C
:1001C000FF4FA591B4918FB7F894EC91111108C02D
:1001D000D095DE23DC938FBFDF91CF911F910895DF
:1001E000DE2BF8CFCF93DF9390E0FC01EA54FF4F72
:1001F00024918E559F4FFC0184918823C9F090E093
:10020000880F991FFC01E257FF4FA591B491FC01A3
:10021000E856FF4FC591D49161110DC09FB7F89476
:100220008C91209582238C938881282328839FBFDB
:10023000DF91CF910895623051F49FB7F8943C91CB
:10024000822F809583238C93E8812E2BEFCF8FB75D
:10025000F894EC912E2B2C938FBFEACF3FB7F894F4
:100260008091D0019091D101A091D201B091D301A0
:1002700026B5A89B05C02F3F19F00196A11DB11D01
:100280003FBFBA2FA92F982F8827BC01CD01620F3D
:10029000711D811D911D42E0660F771F881F991FF8
:1002A0004A95D1F70895CF92DF92EF92FF920E9484
:1002B0002E016B017C010E942E016C197D098E09B3
:1002C0009F09683E734081059105A8F3FF90EF9068
:1002D000DF90CF9008952FB7F8946091CC01709182
:1002E000CD018091CE019091CF012FBF0895862F2F
:1002F000642F0C94F200AF92BF92CF92DF92EF92F4
:10030000FF920F931F93CF93DF936C017B018B01BF
:10031000040F151FEB015E01AE18BF08C017D1070F
:1003200059F06991D601ED91FC910190F081E02D99
:10033000C6010995892B79F7C501DF91CF911F91EE
:100340000F91FF90EF90DF90CF90BF90AF90089506
:10035000FC01538D448D252F30E0842F90E0821BCB
:10036000930B541710F0CF96089501970895FC0150
:10037000918D828D981761F0A28DAE0FBF2FB11DA8
:100380005D968C91928D9F5F9F73928F90E0089500
:100390008FEF9FEF08950F931F930E946B0160935F
:1003A000DC017093DD018093DE019093DF0184ED29
:1003B00091E00E94B70197FF1DC00E946B01009160
:1003C000DC011091DD012091DE013091DF01601B25
:1003D000710B820B930B0091D8011091D9012091E0
:1003E000DA013091DB016017710782079307F8F299
:1003F0008FEF9FEF1F910F910895FC01918D828DDA
:10040000981731F0828DE80FF11D858D90E00895E9
:100410008FEF9FEF0895FC01918D228D892F90E041
:10042000805C9F4F821B91098F739927089584EDFB
:1004300091E00E940B0221E0892B09F420E0822F39
:10044000089580E090E0892B29F00E941702811125
:100450000C9400000895FC01A48DA80FB92FB11DC4
:10046000A35ABF4F2C91848D90E001968F739927EA
:10047000848FA689B7892C93A089B1898C918370C8
:1004800080648C93938D848D981306C00288F389C1
:10049000E02D80818F7D80830895EF92FF920F93EE
:1004A0001F93CF93DF93EC0181E0888F9B8D8C8D20
:1004B00098131AC0E889F989808185FF15C09FB714
:1004C000F894EE89FF896083E889F98980818370D7
:1004D000806480839FBF81E090E0DF91CF911F9186
:1004E0000F91FF90EF900895F62E0B8D10E00F5FA7
:1004F0001F4F0F731127E02E8C8D8E110CC00FB67D
:1005000007FCFACFE889F989808185FFF5CFCE0114
:100510000E942B02F1CFEB8DEC0FFD2FF11DE35A62
:10052000FF4FF0829FB7F8940B8FEA89FB89808197
:100530008062CFCF0F931F93CF93DF938C01D0E0D6
:10054000C0E0F801EC0FFD1F6491662341F084EDDB
:1005500091E00E944D02892B11F02196F2CFCE013D
:10056000DF91CF911F910F910895CF93DF93EC010D
:10057000888D8823B9F0AA89BB89E889F9898C918B
:1005800085FD03C0808186FD0DC00FB607FCF7CF47
:100590008C9185FFF2CF808185FFEDCFCE010E9447
:1005A0002B02E9CFDF91CF9108950F931F93CF9343
:1005B000DF93FC01228533852130310531F5EC01D3
:1005C0002085318521303105D9F40E946B01AB01C2
:1005D000BC018C819D81AE81BF81088119812A81F6
:1005E0003B81801B910BA20BB30B840F951FA61FA1
:1005F000B71FBC01CD01DF91CF911F910F910895DD
:10060000232B19F40E942E01E2CFFC0184819581F5
:10061000A681B781EECFCF92DF92EF92FF920F9338
:100620001F93CF93DF93EC0188858B7F8887E881C8
:10063000F9810190F081E02DCE010995182F888570
:10064000869581701817B9F00E946B016A837B83CD
:100650008C839D83888592E089278887888582FBA3
:10066000882780F9DF91CF911F910F91FF90EF9034
:10067000DF90CF9008950E946B01CA80DB80EC80F0
:10068000FD80AB01BC014C195D096E097F098E81AB
:100690009F81B0E0A0E0481759076A077B07F0F296
:1006A000888581701817D1F20E946B016A837B8361
:1006B0008C839D83888591E08927846088870E9448
:1006C0006B0109851A852B853C85601B710B820B9C
:1006D000930B6D877E878F87988B0E946B0169874C
:1006E0007A878B879C87BACFCF93DF93EC011886EC
:1006F000E881F9810190F081E02D0995882319F0B6
:100700008885836088870E946B016A837B838C83E2
:100710009D83DF91CF9108951F93CF93DF93EC01D9
:1007200010E06623E9F08EA99FA90297C1F48CA975
:100730009DA9019731F40E946B016CA77DA78EA73C
:100740009FA78CA99DA9892B31F40E942E016CA72B
:100750007DA78EA79FA781E090E09FAB8EAB11E0B5
:10076000612F8C810E94C400612F8DE0DF91CF91B9
:100770001F910C94C4000F931F93CF93DF93EC0150
:1007800061E00E948C03CE018C960E94D502FE018E
:10079000EC5BFF4F0081118122813381DC01CB01B1
:1007A000800F911FA21FB31F88AF99AFAAAFBBAF35
:1007B000DF91CF911F910F9108950F931F93CF93C6
:1007C000DF93EC0161E00E948C03CE018C960E94C5
:1007D000D502FE01E05CFF4F00811181228133814F
:1007E000DC01CB01800F911FA21FB31F88AF99AF0F
:1007F000AAAFBBAFDF91CF911F910F910895CF9317
:10080000DF93FC01218930E0F901E653FF4F849129
:10081000F901EA54FF4FD491F901EE55FF4FC4910D
:10082000CC2379F081110E949B00EC2FF0E0EE0FB9
:10083000FF1FE859FF4FA591B491EC91ED2381E0A2
:1008400009F480E08170DF91CF9108958F929F929B
:10085000AF92BF920F931F93CF93DF93CDB7DEB7C5
:10086000A1970FB6F894DEBF0FBECDBF19A24230DC
:1008700008F44AE08E010F5D1F4F842E912CB12C9D
:10088000A12CA50194010E94E00BE62FB901CA0139
:10089000EA3044F5E05DD801EE938D01232B242B43
:1008A000252B79F790E080E0109769F0FD01019029
:1008B0000020E9F73197AF014A1B5B0BBD0184EDC6
:1008C00091E00E947B01A1960FB6F894DEBF0FBEA7
:1008D000CDBFDF91CF911F910F91BF90AF909F90AF
:1008E0008F900895E95CD7CF42E050E068E671E070
:1008F00084ED91E00C947B010E94000E0F931F93F6
:10090000CF93DF93EC0188819981009759F02A8178
:100910003B812617370730F081E0DF91CF911F919F
:100920000F9108958B016F5F7F4F0E94430D0097D9
:1009300059F0998388831B830A832C813D81232B63
:1009400059F7FC011082E8CF80E0E7CFEF92FF92E9
:100950000F931F93CF93DF93EC017B018A01BA01C0
:100960000E947E0428813981811114C0211531052E
:1009700019F0C9010E94BA0C198218821D821C82CA
:100980001B821A82CE01DF91CF911F910F91FF90B0
:10099000EF9008951D830C83B701C9010E94160EC4
:1009A000F1CF1F920F920FB60F9211242F933F9306
:1009B0008F939F93AF93BF938091CC019091CD0182
:1009C000A091CE01B091CF013091CB0123E0230F54
:1009D0002D3758F50196A11DB11D2093CB018093B1
:1009E000CC019093CD01A093CE01B093CF01809123
:1009F000D0019091D101A091D201B091D301019683
:100A0000A11DB11D8093D0019093D101A093D2017B
:100A1000B093D301BF91AF919F918F913F912F914F
:100A20000F900FBE0F901F90189526E8230F029687
:100A3000A11DB11DD2CF1F920F920FB60F9211249C
:100A40002F933F934F935F936F937F938F939F93D6
:100A5000AF93BF93EF93FF9384ED91E00E942B023D
:100A6000FF91EF91BF91AF919F918F917F916F9186
:100A70005F914F913F912F910F900FBE0F901F905C
:100A800018951F920F920FB60F9211242F938F93E8
:100A90009F93EF93FF93E091E401F091E501808152
:100AA000E091EA01F091EB0182FD1BC09081809101
:100AB000ED018F5F8F732091EE01821741F0E0917D
:100AC000ED01F0E0EC52FE4F958F8093ED01FF9128
:100AD000EF919F918F912F910F900FBE0F901F90CC
:100AE00018958081F4CFCF93DF93E4EDF1E013828A
:100AF000128288EE93E0A0E0B0E084839583A68321
:100B0000B78382E591E09183808385EC90E09587BF
:100B1000848784EC90E09787868780EC90E0918BC7
:100B2000808B81EC90E0938B828B82EC90E0958BB4
:100B3000848B86EC90E0978B868B118E128E138EB1
:100B4000148EE1E8F2E083E090E09183808382E01C
:100B500090E0938382838AE090E09583848310867B
:100B6000118612861386958784871686178A44E62F
:100B700051E05783468321E0208F138E148E158E0B
:100B8000168E90A3878F11A212A6528F418F23A792
:100B900084E190E09093D6028093D5028FE090E0BC
:100BA0009093D8028093D7021092DA021092D90261
:100BB00012A213A214A215A216A217A210A611A681
:100BC0001786108A118A128A138A148A158A168A3D
:100BD00015AA14AAC1E7D2E0F983E8831B821A821E
:100BE0001D821C821F821E8250E040E06AE671E096
:100BF00083E792E00E94A604198618861B861A864F
:100C0000DF91CF910895CF93DF93CDB7DEB72897CB
:100C10000FB6F894DEBF0FBECDBF789484B5826066
:100C200084BD84B5816084BD85B5826085BD85B590
:100C3000816085BD80916E00816080936E0010920E
:100C40008100809181008260809381008091810089
:100C5000816080938100809180008160809380001A
:100C60008091B10084608093B1008091B000816078
:100C70008093B00080917A00846080937A008091A4
:100C80007A00826080937A0080917A0081608093FC
:100C90007A0080917A00806880937A001092C10077
:100CA000E091E401F091E50182E08083E091E001D0
:100CB000F091E1011082E091E201F091E30180E125
:100CC00080831092EC01E091E801F091E90186E067
:100CD0008083E091E601F091E7018081806180836B
:100CE000E091E601F091E701808188608083E091E6
:100CF000E601F091E701808180688083E091E60160
:100D0000F091E70180818F7D808360E08EE00E941A
:100D1000F2002091D5023091D602032E000C440B34
:100D2000550B60E8862E6FE4962E62E1A62EB12C5C
:100D3000C501B4010E947F0B69017A01C092C10212
:100D4000D092C202E092C302F092C402A3E0B0E0EB
:100D50000E949E0B6093C5027093C6028093C702E7
:100D60009093C802C092C902D092CA02E092CB020C
:100D7000F092CC026093CD027093CE028093CF02AA
:100D80009093D0022091D7023091D802032E000C0C
:100D9000440B550BC501B4010E947F0BA7E0B0E0E6
:100DA0000E949E0B6093D1027093D2028093D30273
:100DB0009093D40262E0809181020E94F20062E08E
:100DC000809183020E94F20061E0809185020E947E
:100DD000F20061E08DE00E94F20060E08091850207
:100DE0000E94C40060E08DE00E94C4001091810266
:100DF00062E0812F0E94F2001093980287E892E04F
:100E00000E9474031091830262E0812F0E94F2001D
:100E10001093AB028AE992E00E94740385E090E0AF
:100E200090938E0280938D029093A1028093A002F2
:100E30001092B1021092B2021092B3021092B40258
:100E40008091B5029091B602019751F40E946B0116
:100E50006093AD027093AE028093AF029093B002A4
:100E60008091B5029091B602892B51F40E942E0117
:100E70006093AD027093AE028093AF029093B00284
:100E800081E090E09093B8028093B70220E8822E30
:100E90002FE4922E22E1A22EB12C82E0E82EF12C3A
:100EA00066246394712C8091B7029091B802212C32
:100EB000312C2101029731F08DEA92E00E94D50297
:100EC0001B012C0187E892E00E940B038AE992E063
:100ED0000E940B0390918F028091A202182F192B70
:100EE0001170E091D902F091DA02E830F105C0F416
:100EF000E458F84F0C94110C8407560956092A0936
:100F0000F208F208840984091111FAC081E892E01C
:100F10000E94DD0384E090E09093DA028093D9028E
:100F200080E480937C0080917A00806480937A00D2
:100F300080917A0086FDFCCFA0917800B091790075
:100F400023E230E00E94170C2FEF33E040E050E046
:100F50000E947F0BBA01A9014B5F5F4F6F4F7F4F1C
:100F60008091D5029091D6028417950709F48FC01D
:100F70005093D6024093D5028A010550110910936F
:100F8000D8020093D7029A01550F440B550BC501A7
:100F9000B4010E947F0B19012A012092C1023092F4
:100FA000C2024092C3025092C402A3E0B0E00E9489
:100FB0009E0B6093C5027093C6028093C702909304
:100FC000C8022092C9023092CA024092CB025092CB
:100FD000CC026093CD027093CE028093CF029093A7
:100FE000D0029801110F440B550BC501B4010E94AA
:100FF0007F0BA7E0B0E00E949E0B6093D10270933C
:10100000D2028093D3029093D4028FE790E00E94A3
:101010009A022090D5023090D602032C000C44088E
:1010200055084AE0C201B10157FE0DC06DE284EDE2
:1010300091E00E944D0266277727CB016219730960
:10104000840995094AE00E94260482E790E00E9404
:101050009A022090D7023090D802032C000C44084A
:1010600055084AE0C201B10157FE0DC06DE284EDA2
:1010700091E00E944D0266277727CB016219730920
:10108000840995094AE00E9426040E94740484EDB4
:1010900091E00E940B02181619060CF0A1C11A82E9
:1010A00019821C821B821E821D8250E040E06AE68B
:1010B00071E0CE0101960E94A6040E94CB0197FD2B
:1010C00036C18A30910509F432C18F8318860D81AB
:1010D0001E810F5F1F4FB801CE0101960E947E0452
:1010E000882359F329813A818D819E81BE01695FF0
:1010F0007F4F820F931F0E94160E1E830D83DDCF3C
:1011000090FD09C081E892E00E94DD037092DA024E
:101110006092D90205CF80FD09C081E892E00E946B
:10112000BB03F092DA02E092D902FACE8091B702C4
:101130009091B802019709F0F3CE8091B502909199
:10114000B602019711F52090B1023090B2024090A2
:10115000B3025090B4020E946B010091AD02109155
:10116000AE022091AF023091B002201A310A420A39
:10117000530A620D731D841D951D6093B102709317
:10118000B2028093B3029093B4028091B502909121
:10119000B602892B11F52090B1023090B202409036
:1011A000B3025090B4020E942E010091AD02109142
:1011B000AE022091AF023091B002201A310A420AE9
:1011C000530A620D731D841D951D6093B1027093C7
:1011D000B2028093B3029093B402F092B802E0920C
:1011E000B7029ECE8091B9029091BA02A091BB0243
:1011F000B091BC02281639064A065B0608F490CE68
:1012000060E081E892E00E948C0311111CC0809183
:10121000D9029091DA029093DC028093DB028091F4
:10122000C9029091CA02A091CB02B091CC02820D6A
:10123000931DA41DB51D8093BD029093BE02A09383
:10124000BF02B093C002E3E0F0E0F093DA02E09373
:10125000D90266CE8091BD029091BE02A091BF02DC
:10126000B091C002281639064A065B0608F458CE2B
:10127000111158C08091DB029091DC02049759F45F
:1012800085E090E09093DA028093D90281E892E0C1
:101290000E94BB0345CEE4E0F0E0F093DA02E09375
:1012A000D90281E892E00E94DD033ACE8091B90232
:1012B0009091BA02A091BB02B091BC0228163906E7
:1012C0004A065B0608F42CCE60E081E892E00E94BA
:1012D0008C0383E090E09093DA028093D9028091AE
:1012E000C9029091CA02A091CB02B091CC02820DAA
:1012F000931DA41DB51D8093BD029093BE02A093C3
:10130000BF02B093C0020CCE8091BD029091BE028C
:10131000A091BF02B091C002281639064A065B06AA
:1013200008F4FECD1092DA021092D902F9CD69814B
:101330007A8161157105D9F04D815E8183E792E074
:101340000E94A60400917302109174020115110508
:1013500019F1F80181918F018823F1F0082E000C1A
:10136000990B0E94050EF80131978083F2CF80918E
:10137000730290917402009711F00E94BA0C1092BF
:1013800074021092730210927802109277021092F7
:10139000760210927502D6CF10927A0210927902DC
:1013A00010927C0210927B021092800210927F02B7
:1013B00084E890E00E949A0240917702509178026E
:1013C000609173027091740284ED91E00E947B0140
:1013D0000E94740489819A81009711F00E94BA0CCE
:1013E000E0917F02F0918002E730F105D0F4E55002
:1013F000F64F0C94110C020A1E0A740AC90A5D0BFE
:10140000150B5D0B2091790230917A028091770261
:10141000909178022817390720F470928002609228
:101420007F0280E090E0892B09F43DCD0E941702F5
:10143000882309F432CD0E9400002FCD80917902DB
:1014400090917A0220917702309178028217930767
:1014500030F4A0917302B0917402109771F410925D
:10146000CA01AAECB1E04C91403251F485E090E021
:101470009093800280937F02D4CFA80FB91FF3CF3F
:101480008217930730F4E0917302F0917402309761
:10149000E1F41092CA01EAECF1E0E0818FEB8E0FEB
:1014A0008A31B0F4EE0FFF0BEC57FF4F8081918132
:1014B00090937E0280937D0210927C0210927B02B8
:1014C000F0928002E0927F02ACCFE80FF91FE5CFE7
:1014D00080ED8E0F8A3028F4EE0FFF0BE652FF4F9F
:1014E000E5CF8AE691E0E4CF80917B0290917C0287
:1014F000E0917D02F0917E02E80FF91F2081211119
:1015000007C0E3E0F0E0F0938002E0937F0289CF30
:10151000A0917102B0917202A85ABF4F2D913C91D7
:10152000232B09F07ECF019690937C0280937B025F
:10153000D0800AE010E0E0917102F0917202E85A66
:10154000FF4F80819181892B29F00E945301015026
:10155000110989F780917102909172028C01085AE9
:101560001F4FF80120813181232B09F05ACFFEE271
:10157000DF1206C00E94DD03F8017182608251CF44
:10158000FDE2DF124ECF0E94BB03F801F182E08240
:1015900048CF10927C0210927B020AE010E0E091AA
:1015A0007102F0917202E85AFF4F80819181892B7C
:1015B00029F00E9453010150110989F7009171022D
:1015C000109172026801F8E5CF0ED11CF6018081FE
:1015D0009181892B39F5F89480819181009711F0E0
:1015E0000397F9F460E0C8010E948C0386E090E064
:1015F000F60191838083C8018C960E94D502F80180
:10160000E45BFF4F2081318142815381DC01CB01BA
:10161000820F931FA41FB51FF80184AF95AFA6AF2B
:10162000B7AF789484E090E023CF0AE010E0E09137
:101630007102F0917202E85AFF4F80819181892BEB
:1016400029F00E9453010150110989F7009171029C
:1016500010917202680198E5C90ED11CF6018081D3
:101660009181892B39F5F89480819181009711F04F
:101670000397F9F460E0C8010E948C0387E090E0D2
:10168000F60191838083C8018C960E94D502F801EF
:10169000E05BFF4F2081318142815381DC01CB012E
:1016A000820F931FA41FB51FF80184AF95AFA6AF9B
:1016B000B7AF789486E090E0DBCEE0917102F091D4
:1016C0007202E85AFF4F80819181892B09F0A9CEDF
:1016D0008091790290917A02019690937A02809398
:1016E00079021092800210927F029BCE8091730249
:1016F00090917402009711F00C94BA0C0895052E85
:1017000097FB1EF400940E94960B57FD07D00E9491
:10171000E00B07FC03D04EF40C94960B50954095CB
:10172000309521953F4F4F4F5F4F0895909580958D
:10173000709561957F4F8F4F9F4F08950E94020CC7
:10174000A59F900DB49F900DA49F800D911D112415
:1017500008952F923F924F925F926F927F928F9255
:101760009F92AF92BF92CF92DF92EF92FF920F9330
:101770001F93CF93DF93CDB7DEB7CA1BDB0B0FB63A
:10178000F894DEBF0FBECDBF09942A8839884888F7
:101790005F846E847D848C849B84AA84B984C8848D
:1017A000DF80EE80FD800C811B81AA81B981CE0F84
:1017B000D11D0FB6F894DEBF0FBECDBFED01089569
:1017C000A1E21A2EAA1BBB1BFD010DC0AA1FBB1F45
:1017D000EE1FFF1FA217B307E407F50720F0A21BB7
:1017E000B30BE40BF50B661F771F881F991F1A9424
:1017F00069F760957095809590959B01AC01BD014E
:10180000CF010895A29FB001B39FC001A39F700DA7
:10181000811D1124911DB29F700D811D1124911DF8
:101820000895EE0FFF1F0590F491E02D09940E949A
:10183000020CB7FF0895821B930B08950F931F931B
:10184000CF93DF938230910510F482E090E0E09135
:10185000DF02F091E00230E020E0B0E0A0E030975D
:1018600099F42115310509F44AC0281B390B24309D
:101870003105D8F58A819B816115710589F1FB01DC
:1018800093838283FE0111C04081518102811381C3
:1018900048175907E0F04817590799F4109761F075
:1018A00012960C93129713961C933296CF01DF91E8
:1018B000CF911F910F9108950093DF021093E002E2
:1018C000F4CF2115310551F04217530738F0A90123
:1018D000DB019A01BD01DF01F801C1CFEF01F9CFB2
:1018E0009093E0028093DF02CDCFFE01E20FF31F61
:1018F000819391932250310939832883D7CF209146
:10190000DD023091DE02232B41F42091020130915F
:1019100003013093DE022093DD022091000130911B
:1019200001012115310541F42DB73EB74091040165
:1019300050910501241B350BE091DD02F091DE0290
:10194000E217F307A0F42E1B3F0B2817390778F096
:10195000AC014E5F5F4F2417350748F04E0F5F1FF5
:101960005093DE024093DD02819391939FCFF0E08C
:10197000E0E09CCFCF93DF930097E9F0FC01329732
:1019800013821282A091DF02B091E002ED0130E0FB
:1019900020E01097A1F420813181820F931F2091C4
:1019A000DD023091DE022817390709F061C0F0939B
:1019B000DE02E093DD02DF91CF910895EA01CE17B8
:1019C000DF07E8F54A815B819E0141155105B1F7BA
:1019D000E901FB83EA8349915991C40FD51FEC17A4
:1019E000FD0761F4808191810296840F951FE901C2
:1019F00099838883828193819B838A83F0E0E0E0EE
:101A000012968D919C9113970097B9F52D913C9169
:101A10001197CD010296820F931F2091DD02309124
:101A2000DE022817390739F6309751F51092E00297
:101A30001092DF02B093DE02A093DD02BCCFD3830D
:101A4000C28340815181840F951FC817D90761F463
:101A50004E5F5F4F88819981480F591F51834083A2
:101A60008A819B81938382832115310509F0B0CF50
:101A7000F093E002E093DF029ECFFD01DC01C0CFD6
:101A800013821282D7CFB0E0A0E0E9E4FDE00C942D
:101A9000AB0B8C01009751F4CB010E941E0C8C0102
:101AA000C801CDB7DEB7E0E10C94C70BFC01E60F2F
:101AB000F71F9C0122503109E217F30708F49DC07B
:101AC000D901CD91DC911197C617D70798F0C53091
:101AD000D10530F3CE0104978617970708F3C61B8C
:101AE000D70B2297C193D1936D937C93CF010E9422
:101AF000BA0CD6CF5B01AC1ABD0A4C018C0E9D1EF0
:101B0000A091DF02B091E002512C412CF12CE12C8C
:101B1000109731F58091DD029091DE0288159905CC
:101B200009F05CC04616570608F058C080910001C5
:101B300090910101009741F48DB79EB74091040147
:101B400050910501841B950BE817F90708F055C063
:101B5000F093DE02E093DD02F90171836083A0CF90
:101B60008D919C91119712966C90129713967C9080
:101B70001397A815B90559F56C0142E0C40ED11CA4
:101B8000CA14DB0420F1AC014A195B09DA01129690
:101B9000159780F06282738251834083D9016D93DF
:101BA0007C93E114F10471F0D7011396FC93EE934A
:101BB000129776CF22968C0F9D1FF9019183808317
:101BC000F301EFCFF093E002E093DF0269CF481614
:101BD000590608F42C017D01D3019ACFCB010E9454
:101BE0001E0C7C01009749F0AE01B8010E940D0E59
:101BF000C8010E94BA0C870153CF10E000E050CF1B
:101C000081E090E0F8940C941D0E91110895815696
:101C10008A5108F4805285580895FB01DC0102C006
:101C200001900D9241505040D8F70895FB01DC011E
:101C300001900D920020E1F7089510E0C0E7D0E098
:101C400004C0FE010E94110C2196C137D107C9F7CB
:041C5000F894FFCF36
:101C54000000E10280008101B9016B01C001C801EB
:101C64007001C601B301C1019B018001750191019D
:101C7400C70190017A017F016C01BA0192018501CB
:101C8400A7018A0184018901BF018E0194019A018F
:101C9400A001A601AC01B201B801BE01C40100005B
:101CA40000004D027B01A801B5020B02B701FD0142
:101CB40000000000FF0377010D0A002D2E2D2E00D9
:101CC4002E2E2D2E002E2D2E2E002E2D2D2E002DBF
:101CD4002D2E2D002D2E2E2D002D2E2D2D002D2DB3
:101CE4002D2D2D002E2D2D2D2D002E2E2D2D2D00A4
:101CF4002E2E2E2D2D002E2E2E2E2D002E2E2E2E5F
:101D04002E002D2E2E2E2E002D2D2E2E2E002D2D7E
:0A1D14002D2E2E002D2D2D2D2E005A
:00000001FF
