:020000040000FA
:100000000C9471000C9499000C9499000C94990034
:100010000C9499000C9499000C9499000C949900FC
:100020000C9499000C9499000C9499000C949900EC
:100030000C9499000C9499000C9499000C949900DC
:100040000C94C5040C9499000C9435050C940F0580
:100050000C9499000C9499000C9499000C949900BC
:100060000C9499000C9499000000000023002600D5
:100070002900204661726E73776F7274683D005775
:10008000504D3D0053656E64696E673A2000000074
:100090000000240027002A0000000000250028009E
:1000A0002B000404040404040404020202020202F9
:1000B000030303030303010204081020408001022C
:1000C00004081020010204081020000000080002AB
:1000D00001000003040700000000000000006705A5
:1000E000460B11241FBECFEFD8E0DEBFCDBF11E01D
:1000F000A0E0B1E0E4EFFBE102C005900D92AA3C64
:10010000B107D9F722E0AAECB1E001C01D92A13EEF
:10011000B207E1F710E0C0E7D0E004C02197FE018C
:100120000E94E10BCF36D107C9F70E94F7050C9466
:10013000ED0D0C940000833081F028F4813099F0AB
:100140008230A9F008958730A9F08830C9F0843052
:10015000B1F4809180008F7D03C0809180008F7703
:1001600080938000089584B58F7784BD089584B509
:100170008F7DFBCF8091B0008F778093B000089582
:100180008091B0008F7DF9CF1F93CF93DF93282FFD
:1001900030E0F901E653FF4F8491F901EA54FF4F33
:1001A000D491F901EE55FF4FC491CC23A9F0162F3D
:1001B00081110E949B00EC2FF0E0EE0FFF1FE8562C
:1001C000FF4FA591B4918FB7F894EC91111108C02D
:1001D000D095DE23DC938FBFDF91CF911F910895DF
:1001E000DE2BF8CFCF93DF9390E0FC01EA54FF4F72
:1001F00024918E559F4FFC0184918823C9F090E093
:10020000880F991FFC01E257FF4FA591B491FC01A3
:10021000E856FF4FC591D49161110DC09FB7F89476
:100220008C91209582238C938881282328839FBFDB
:10023000DF91CF910895623051F49FB7F8943C91CB
:10024000822F809583238C93E8812E2BEFCF8FB75D
:10025000F894EC912E2B2C938FBFEACF3FB7F894F4
:100260008091D0019091D101A091D201B091D301A0
:1002700026B5A89B05C02F3F19F00196A11DB11D01
:100280003FBFBA2FA92F982F8827BC01CD01620F3D
:10029000711D811D911D42E0660F771F881F991FF8
:1002A0004A95D1F708952FB7F8946091CC017091D9
:1002B000CD018091CE019091CF012FBF0895862F5F
:1002C000642F0C94F200AF92BF92CF92DF92EF9224
:1002D000FF920F931F93CF93DF936C017B018B01F0
:1002E000040F151FEB015E01AE18BF08C017D10740
:1002F00059F06991D601ED91FC910190F081E02DCA
:10030000C6010995892B79F7C501DF91CF911F911E
:100310000F91FF90EF90DF90CF90BF90AF90089536
:10032000FC01538D448D252F30E0842F90E0821BFB
:10033000930B541710F0CF96089501970895FC0180
:10034000918D828D981761F0A28DAE0FBF2FB11DD8
:100350005D968C91928D9F5F9F73928F90E0089530
:100360008FEF9FEF08950F931F930E9453016093A7
:10037000DC017093DD018093DE019093DF0184ED59
:1003800091E00E949F0197FF1DC00E9453010091C0
:10039000DC011091DD012091DE013091DF01601B55
:1003A000710B820B930B0091D8011091D901209110
:1003B000DA013091DB016017710782079307F8F2C9
:1003C0008FEF9FEF1F910F910895FC01918D828D0A
:1003D000981731F0828DE80FF11D858D90E008951A
:1003E0008FEF9FEF0895FC01918D228D892F90E072
:1003F000805C9F4F821B91098F739927089584ED2C
:1004000091E00E94F30121E0892B09F420E0822F82
:10041000089580E090E0892B29F00E94FF0181116E
:100420000C9400000895FC01A48DA80FB92FB11DF4
:10043000A35ABF4F2C91848D90E001968F7399271A
:10044000848FA689B7892C93A089B1898C918370F8
:1004500080648C93938D848D981306C00288F389F1
:10046000E02D80818F7D80830895EF92FF920F931E
:100470001F93CF93DF93EC0181E0888F9B8D8C8D50
:1004800098131AC0E889F989808185FF15C09FB744
:10049000F894EE89FF896083E889F9898081837007
:1004A000806480839FBF81E090E0DF91CF911F91B6
:1004B0000F91FF90EF900895F62E0B8D10E00F5FD7
:1004C0001F4F0F731127E02E8C8D8E110CC00FB6AD
:1004D00007FCFACFE889F989808185FFF5CFCE0145
:1004E0000E941302F1CFEB8DEC0FFD2FF11DE35AAB
:1004F000FF4FF0829FB7F8940B8FEA89FB898081C8
:100500008062CFCF0F931F93CF93DF938C01D0E006
:10051000C0E0F801EC0FFD1F6491662341F084ED0B
:1005200091E00E943502892B11F02196F2CFCE0185
:10053000DF91CF911F910F910895CF93DF93EC013D
:10054000888D8823B9F0AA89BB89E889F9898C91BB
:1005500085FD03C0808186FD0DC00FB607FCF7CF77
:100560008C9185FFF2CF808185FFEDCFCE010E9477
:100570001302E9CFDF91CF9108950F931F93CF938B
:10058000DF93FC01228533852130310531F5EC0103
:100590002085318521303105D9F40E945301AB010A
:1005A000BC018C819D81AE81BF81088119812A8126
:1005B0003B81801B910BA20BB30B840F951FA61FD1
:1005C000B71FBC01CD01DF91CF911F910F9108950D
:1005D000232B19F40E942E01E2CFFC018481958126
:1005E000A681B781EECFCF93DF93FC0122853385BF
:1005F00022303105C9F4EC0180859185019731F4F1
:100600000E945301688379838A839B8388859985B7
:10061000892B31F40E942E01688379838A839B831E
:1006200081E090E09B878A87DF91CF910895CF92F8
:10063000DF92EF92FF920F931F93CF93DF93EC0122
:1006400088858B7F8887E881F9810190F081E02D92
:10065000CE010995182F8885869581701817B9F0F5
:100660000E9453016A837B838C839D83888592E0FB
:1006700089278887888582FB882780F9DF91CF9139
:100680001F910F91FF90EF90DF90CF9008950E94FF
:100690005301CA80DB80EC80FD80AB01BC014C19AA
:1006A0005D096E097F098E819F81B0E0A0E0481747
:1006B00059076A077B07F0F2888581701817D1F215
:1006C0000E9453016A837B838C839D83888591E09C
:1006D0008927846088870E94530109851A852B85A4
:1006E0003C85601B710B820B930B6D877E878F8718
:1006F000988B0E94530169877A878B879C87BACF32
:10070000CF93DF93EC011886E881F9810190F081A5
:10071000E02D0995882319F08885836088870E94D9
:1007200053016A837B838C839D83DF91CF910895EE
:10073000CF93C62FFC0184810E94C4006C2F8DE0F2
:10074000CF910C94C4000F931F93CF93DF93EC01D0
:100750008C01045D1F4FC8010E94F30261E0CE01CD
:100760000E949803C8010E94BD02FE01EC5BFF4F8E
:100770000081118122813381DC01CB01800F911F27
:10078000A21FB31F88AF99AFAAAFBBAFDF91CF91C4
:100790001F910F9108950F931F93CF93DF93EC0157
:1007A0008C01045D1F4FC8010E94F30261E0CE017D
:1007B0000E949803C8010E94BD02FE01E05CFF4F49
:1007C0000081118122813381DC01CB01800F911FD7
:1007D000A21FB31F88AF99AFAAAFBBAFDF91CF9174
:1007E0001F910F910895CF93DF93FC01218930E091
:1007F000F901E653FF4F8491F901EA54FF4FD49178
:10080000F901EE55FF4FC491CC2379F081110E947C
:100810009B00EC2FF0E0EE0FFF1FE859FF4FA59172
:10082000B491EC91ED2381E009F480E08170DF91D7
:10083000CF9108958F929F92AF92BF920F931F9383
:10084000CF93DF93CDB7DEB7A1970FB6F894DEBF95
:100850000FBECDBF19A2423008F44AE08E010F5DF1
:100860001F4F842E912CB12CA12CA50194010E9424
:10087000B00BE62FB901CA01EA3044F5E05DD801BA
:10088000EE938D01232B242B252B79F790E080E02C
:10089000109769F0FD0101900020E9F73197AF0151
:1008A0004A1B5B0BBD0184ED91E00E946301A196A0
:1008B0000FB6F894DEBF0FBECDBFDF91CF911F9171
:1008C0000F91BF90AF909F908F900895E95CD7CF24
:1008D00042E050E068E671E084ED91E00C94630141
:1008E0000E94D00D0F931F93CF93DF93EC0188816B
:1008F0009981009759F02A813B812617370730F0FC
:1009000081E0DF91CF911F910F9108958B016F5F6F
:100910007F4F0E94130D009759F0998388831B83A2
:100920000A832C813D81232B59F7FC011082E8CFEB
:1009300080E0E7CFEF92FF920F931F93CF93DF9367
:10094000EC017B018A01BA010E947204288139817D
:10095000811114C02115310519F0C9010E948A0CBA
:10096000198218821D821C821B821A82CE01DF919D
:10097000CF911F910F91FF90EF9008951D830C83ED
:10098000B701C9010E94E60DF1CF1F920F920FB679
:100990000F9211242F933F938F939F93AF93BF9305
:1009A0008091CC019091CD01A091CE01B091CF0169
:1009B0003091CB0123E0230F2D3758F50196A11D6F
:1009C000B11D2093CB018093CC019093CD01A093D6
:1009D000CE01B093CF018091D0019091D101A0912F
:1009E000D201B091D3010196A11DB11D8093D00118
:1009F0009093D101A093D201B093D301BF91AF9155
:100A00009F918F913F912F910F900FBE0F901F904C
:100A1000189526E8230F0296A11DB11DD2CF1F9273
:100A20000F920FB60F9211242F933F934F935F9322
:100A30006F937F938F939F93AF93BF93EF93FF93A6
:100A400084ED91E00E941302FF91EF91BF91AF916D
:100A50009F918F917F916F915F914F913F912F91D6
:100A60000F900FBE0F901F9018951F920F920FB608
:100A70000F9211242F938F939F93EF93FF93E09105
:100A8000E401F091E5018081E091EA01F091EB0150
:100A900082FD1BC090818091ED018F5F8F7320914B
:100AA000EE01821741F0E091ED01F0E0EC52FE4FD3
:100AB000958F8093ED01FF91EF919F918F912F91F1
:100AC0000F900FBE0F901F9018958081F4CFCF9399
:100AD000DF93E4EDF1E01382128288EE93E0A0E070
:100AE000B0E084839583A683B78382E591E0918308
:100AF000808385EC90E09587848784EC90E09787ED
:100B0000868780EC90E0918B808B81EC90E0938BDA
:100B1000828B82EC90E0958B848B86EC90E0978BB7
:100B2000868B118E128E138E148EE1E8F2E083E034
:100B300090E09183808382E090E0938382838AE0D7
:100B400090E095838483108611861286138695879C
:100B500084871686178A44E651E05783468321E04E
:100B6000208F138E148E158E168E90A3878F11A250
:100B700012A6528F418F23A784E190E09093D60272
:100B80008093D5028FE090E09093D8028093D702B3
:100B90001092DA021092D90212A213A214A215A284
:100BA00016A217A210A611A61786108A118A128AF9
:100BB000138A148A158A168A15AA14AAC1E7D2E0E4
:100BC000F983E8831B821A821D821C821F821E8287
:100BD00050E040E06AE671E083E792E00E949A0408
:100BE000198618861B861A86DF91CF910895CF93B8
:100BF000DF93CDB7DEB728970FB6F894DEBF0FBEF0
:100C0000CDBF789484B5826084BD84B5816084BD95
:100C100085B5826085BD85B5816085BD80916E009A
:100C2000816080936E0010928100809181008260CB
:100C30008093810080918100816080938100809108
:100C400080008160809380008091B10084608093F7
:100C5000B1008091B00081608093B00080917A00F3
:100C6000846080937A0080917A00826080937A0019
:100C700080917A00816080937A0080917A00806808
:100C800080937A001092C100E091E401F091E501B7
:100C900082E08083E091E001F091E1011082E09137
:100CA000E201F091E30180E180831092EC01E09198
:100CB000E801F091E90186E08083E091E601F0919E
:100CC000E701808180618083E091E601F091E70196
:100CD000808188608083E091E601F091E701808166
:100CE00080688083E091E601F091E70180818F7D4B
:100CF000808360E08EE00E94F2002091D502309166
:100D0000D602032E000C440B550B60E8862E6FE4D0
:100D1000962E62E1A62EB12CC501B4010E944F0BA4
:100D200069017A01C092C102D092C202E092C3026C
:100D3000F092C402A3E0B0E00E946E0B6093C50283
:100D40007093C6028093C7029093C802C092C902F2
:100D5000D092CA02E092CB02F092CC026093CD0214
:100D60007093CE028093CF029093D0022091D7024D
:100D70003091D802032E000C440B550BC501B40171
:100D80000E944F0BA7E0B0E00E946E0B6093D1026F
:100D90007093D2028093D3029093D40262E0809148
:100DA00081020E94F20062E0809183020E94F200C0
:100DB00061E0809185020E94F20061E08DE00E9476
:100DC000F20060E0809185020E94C40060E08DE046
:100DD0000E94C4001091810262E0812F0E94F20003
:100DE0001093980287E892E00E948003109183029A
:100DF00062E0812F0E94F2001093AB028AE992E038
:100E00000E94800385E090E090938E0280938D0293
:100E10009093A1028093A0021092B1021092B202AC
:100E20001092B3021092B4028091B5029091B60272
:100E3000019751F40E9453016093AD027093AE028A
:100E40008093AF029093B0028091B5029091B60268
:100E5000892B51F40E942E016093AD027093AE0273
:100E60008093AF029093B00281E090E09093B8023B
:100E70008093B70220E8C22E2FE4D22E22E1E22E88
:100E8000F12C34E0232E312C82E0682E712C442486
:100E90004394512C8091B7029091B802812C912CEF
:100EA0005401029731F08DEA92E00E94BD024B019D
:100EB0005C0187E892E00E9417038AE992E00E94B1
:100EC000170390918F028091A202182F192B117095
:100ED000E091D902F091DA02E830F105B0F4ED5872
:100EE000F84F0C94E10B7B07490949091F09E708F2
:100EF000E708770977091111F8C081E892E00E94AC
:100F0000CB033092DA022092D90280E480937C00F5
:100F100080917A00806480937A0080917A0086FDC7
:100F2000FCCFA0917800B091790023E230E00E94DC
:100F3000E70B2FEF33E040E050E00E944F0BBA0187
:100F4000A9014B5F5F4F6F4F7F4F8091D50290910A
:100F5000D6028417950709F48FC05093D6024093A8
:100F6000D5028A01055011091093D8020093D702C7
:100F70009A01550F440B550BC701B6010E944F0B48
:100F800049015A018092C1029092C202A092C3020A
:100F9000B092C402A3E0B0E00E946E0B6093C50261
:100FA0007093C6028093C7029093C8028092C902D0
:100FB0009092CA02A092CB02B092CC026093CD0272
:100FC0007093CE028093CF029093D0029801110FBC
:100FD000440B550BC701B6010E944F0BA7E0B0E0D0
:100FE0000E946E0B6093D1027093D2028093D30261
:100FF0009093D4028FE790E00E9482028090D50205
:101000009090D602092C000CAA08BB084AE0C50142
:10101000B401B7FE0DC06DE284ED91E00E9435028F
:1010200066277727CB01681979098A099B094AE065
:101030000E941A0482E790E00E9482028090D70208
:101040009090D802092C000CAA08BB084AE0C50100
:10105000B401B7FE0DC06DE284ED91E00E9435024F
:1010600066277727CB01681979098A099B094AE025
:101070000E941A040E94680484ED91E00E94F3012A
:10108000181619060CF09FC11A8219821C821B8245
:101090001E821D8250E040E06AE671E0CE010196BA
:1010A0000E949A040E94B30197FD34C18A309105D1
:1010B00009F430C18F8318860D811E810F5F1F4F89
:1010C000B801CE0101960E947204882359F3298148
:1010D0003A818D819E81BE01695F7F4F820F931F90
:1010E0000E94E60D1E830D83DDCF90FD09C081E8CF
:1010F00092E00E94CB035092DA024092D90205CFCF
:1011000080FD09C081E892E00E94A3037092DA0298
:101110006092D902FACE8091B7029091B8020197FD
:1011200009F0F3CE8091B5029091B602019711F5C6
:101130008090B1029090B202A090B302B090B4023D
:101140000E9453010091AD021091AE022091AF02B6
:101150003091B002801A910AA20AB30A860E971E35
:10116000A81EB91E8092B1029092B202A092B30260
:10117000B092B4028091B5029091B602892B11F51C
:101180008090B1029090B202A090B302B090B402ED
:101190000E942E010091AD021091AE022091AF028B
:1011A0003091B002801A910AA20AB30A860E971EE5
:1011B000A81EB91E8092B1029092B202A092B30210
:1011C000B092B4027092B8026092B7029ECE809143
:1011D000B9029091BA02A091BB02B091BC028816EC
:1011E0009906AA06BB0608F490CE60E081E892E07A
:1011F0000E94980311111CC08091D9029091DA02CB
:101200009093DC028093DB028091C9029091CA0224
:10121000A091CB02B091CC02880D991DAA1DBB1DD7
:101220008093BD029093BE02A093BF02B093C00210
:1012300083E090E09093DA028093D90266CE8091A9
:10124000BD029091BE02A091BF02B091C00288166B
:101250009906AA06BB0608F458CE111156C0809113
:10126000DB029091DC02049759F4E5E0F0E0F093A2
:10127000DA02E093D90281E892E00E94A30345CE0E
:101280003092DA022092D90281E892E00E94CB03E8
:101290003CCE8091B9029091BA02A091BB02B0916C
:1012A000BC0288169906AA06BB0608F42ECE60E09A
:1012B00081E892E00E94980383E090E09093DA0244
:1012C0008093D9028091C9029091CA02A091CB0269
:1012D000B091CC02880D991DAA1DBB1D8093BD0243
:1012E0009093BE02A093BF02B093C0020ECE809135
:1012F000BD029091BE02A091BF02B091C0028816BB
:101300009906AA06BB0608F400CE1092DA021092E3
:10131000D902FBCD69817A8161157105D9F04D81C2
:101320005E8183E792E00E949A040091730210911B
:1013300074020115110519F1F80181918F018823BB
:10134000F1F0082E000C990B0E94D50DF801319791
:101350008083F2CF8091730290917402009711F014
:101360000E948A0C109274021092730210927802FA
:10137000109277021092760210927502D6CF1092D8
:101380007A021092790210927C0210927B021092E3
:10139000800210927F0284E890E00E9482024091D5
:1013A000770250917802609173027091740284ED1B
:1013B00091E00E9463010E94680489819A810097EC
:1013C00011F00E948A0C2091770230917802211549
:1013D0003105E9F0E0917F02F0918002E730F105FC
:1013E000B0F4EB50F64F0C94E10BFC09210A730AA0
:1013F000BF0A2D0BF70A2D0B8091790290917A028A
:101400008217930788F45092800240927F0280E016
:1014100090E0892B09F43ECD0E94FF01882309F456
:1014200033CD0E94000030CD50E040E06AE671E02C
:1014300083E792E00E949A0410927A021092790255
:10144000E6CF8091790290917A028217930730F467
:10145000A0917302B0917402109771F41092CA01B6
:10146000AAECB1E04C91403251F485E090E09093C9
:10147000800280937F02CBCFA80FB91FF3CF8217D2
:10148000930730F4E0917302F09174023097E1F425
:101490001092CA01EAECF1E0E0818FEB8E0F8A3105
:1014A000B0F4EE0FFF0BEC57FF4F808191819093CA
:1014B0007E0280937D0210927C0210927B027092D9
:1014C000800260927F02A3CFE80FF91FE5CF80ED85
:1014D0008E0F8A3028F4EE0FFF0BE652FF4FE5CF58
:1014E0008AE691E0E4CFE0917D02F0917E02809166
:1014F0007B0290917C02E80FF91F808181110BC063
:1015000010927C0210927B02E3E0F0E0F093800204
:10151000E0937F027CCF8E32E1F480917102909152
:1015200072028C01085A1F4FF80120813181232B50
:1015300009F06DCF0E94CB03F80151824082809167
:101540007B0290917C02019690937C0280937B02B7
:101550005ECF8D3209F05BCF809171029091720263
:101560008C01085A1F4FF80120813181232B09F08B
:101570004ECF0E94A303F80171826082E0CF0091F8
:101580007102109172025801F8E5AF0EB11CF5011D
:1015900080819181892B09F03ACF4801FCE28F0EBE
:1015A000911CC4010E94F30260E0C8010E949803EC
:1015B00086E090E0F50191838083C4010E94BD0222
:1015C000F801E45BFF4F80809180A280B380DC0152
:1015D000CB01880D991DAA1DBB1DF80184AF95AFE5
:1015E000A6AFB7AF3092800220927F0210CF009159
:1015F0007102109172025801F8E5AF0EB11CF501AD
:1016000080819181892B09F002CF4801FCE28F0E85
:10161000911CC4010E94F30260E0C8010E9498037B
:1016200087E090E0F50191838083C4010E94BD02B0
:10163000F801E05BFF4F80809180A280B380DC01E5
:10164000CB01880D991DAA1DBB1DF80184AF95AF74
:10165000A6AFB7AF86E090E00ACFE0917102F091BB
:101660007202E85AFF4F80819181892B09F0CFCE19
:101670008091790290917A02019690937A028093F8
:1016800079021092800210927F02C1CE8091730283
:1016900090917402009711F00C948A0C0895052E15
:1016A00097FB1EF400940E94660B57FD07D00E9422
:1016B000B00B07FC03D04EF40C94660B509540958C
:1016C000309521953F4F4F4F5F4F089590958095EE
:1016D000709561957F4F8F4F9F4F08950E94D20B59
:1016E000A59F900DB49F900DA49F800D911D112476
:1016F00008952F923F924F925F926F927F928F92B6
:101700009F92AF92BF92CF92DF92EF92FF920F9390
:101710001F93CF93DF93CDB7DEB7CA1BDB0B0FB69A
:10172000F894DEBF0FBECDBF09942A883988488857
:101730005F846E847D848C849B84AA84B984C884ED
:10174000DF80EE80FD800C811B81AA81B981CE0FE4
:10175000D11D0FB6F894DEBF0FBECDBFED010895C9
:10176000A1E21A2EAA1BBB1BFD010DC0AA1FBB1FA5
:10177000EE1FFF1FA217B307E407F50720F0A21B17
:10178000B30BE40BF50B661F771F881F991F1A9484
:1017900069F760957095809590959B01AC01BD01AE
:1017A000CF010895A29FB001B39FC001A39F700D08
:1017B000811D1124911DB29F700D811D1124911D59
:1017C0000895EE0FFF1F0590F491E02D09940E94FB
:1017D000D20BB7FF0895821B930B08950F931F93AD
:1017E000CF93DF938230910510F482E090E0E09196
:1017F000DF02F091E00230E020E0B0E0A0E03097BE
:1018000099F42115310509F44AC0281B390B2430FD
:101810003105D8F58A819B816115710589F1FB013C
:1018200093838283FE0111C0408151810281138123
:1018300048175907E0F04817590799F4109761F0D5
:1018400012960C93129713961C933296CF01DF9148
:10185000CF911F910F9108950093DF021093E00242
:10186000F4CF2115310551F04217530738F0A90183
:10187000DB019A01BD01DF01F801C1CFEF01F9CF12
:101880009093E0028093DF02CDCFFE01E20FF31FC1
:10189000819391932250310939832883D7CF2091A6
:1018A000DD023091DE02232B41F4209102013091C0
:1018B00003013093DE022093DD022091000130917C
:1018C00001012115310541F42DB73EB740910401C6
:1018D00050910501241B350BE091DD02F091DE02F1
:1018E000E217F307A0F42E1B3F0B2817390778F0F7
:1018F000AC014E5F5F4F2417350748F04E0F5F1F56
:101900005093DE024093DD02819391939FCFF0E0EC
:10191000E0E09CCFCF93DF930097E9F0FC01329792
:1019200013821282A091DF02B091E002ED0130E05B
:1019300020E01097A1F420813181820F931F209124
:10194000DD023091DE022817390709F061C0F093FB
:10195000DE02E093DD02DF91CF910895EA01CE1718
:10196000DF07E8F54A815B819E0141155105B1F71A
:10197000E901FB83EA8349915991C40FD51FEC1704
:10198000FD0761F4808191810296840F951FE90122
:1019900099838883828193819B838A83F0E0E0E04E
:1019A00012968D919C9113970097B9F52D913C91CA
:1019B0001197CD010296820F931F2091DD02309185
:1019C000DE022817390739F6309751F51092E002F8
:1019D0001092DF02B093DE02A093DD02BCCFD3836E
:1019E000C28340815181840F951FC817D90761F4C4
:1019F0004E5F5F4F88819981480F591F5183408303
:101A00008A819B81938382832115310509F0B0CFB0
:101A1000F093E002E093DF029ECFFD01DC01C0CF36
:101A200013821282D7CFB0E0A0E0E9E1FDE00C9490
:101A30007B0B8C01009751F4CB010E94EE0B8C01C3
:101A4000C801CDB7DEB7E0E10C94970BFC01E60FBF
:101A5000F71F9C0122503109E217F30708F49DC0DB
:101A6000D901CD91DC911197C617D70798F0C530F1
:101A7000D10530F3CE0104978617970708F3C61BEC
:101A8000D70B2297C193D1936D937C93CF010E9482
:101A90008A0CD6CF5B01AC1ABD0A4C018C0E9D1E80
:101AA000A091DF02B091E002512C412CF12CE12CED
:101AB000109731F58091DD029091DE02881599052D
:101AC00009F05CC04616570608F058C08091000126
:101AD00090910101009741F48DB79EB740910401A8
:101AE00050910501841B950BE817F90708F055C0C4
:101AF000F093DE02E093DD02F90171836083A0CFF1
:101B00008D919C91119712966C90129713967C90E0
:101B10001397A815B90559F56C0142E0C40ED11C04
:101B2000CA14DB0420F1AC014A195B09DA011296F0
:101B3000159780F06282738251834083D9016D933F
:101B40007C93E114F10471F0D7011396FC93EE93AA
:101B5000129776CF22968C0F9D1FF9019183808377
:101B6000F301EFCFF093E002E093DF0269CF481674
:101B7000590608F42C017D01D3019ACFCB010E94B4
:101B8000EE0B7C01009749F0AE01B8010E94DD0D1B
:101B9000C8010E948A0C870153CF10E000E050CFAB
:101BA00081E090E0F8940C94ED0D91110895815628
:101BB0008A5108F4805285580895FB01DC0102C067
:101BC00001900D9241505040D8F70895FB01DC017F
:101BD00001900D920020E1F7089510E0C0E7D0E0F9
:101BE00004C0FE010E94E10B2196C137D107C9F75D
:101BF000F894FFCF0000E10280008101B9016B0180
:101C0000C001C8017001C601B301C1019B0180017F
:101C100075019101C70190017A017F016C01BA0140
:101C200092018501A7018A0184018901BF018E010A
:101C300094019A01A001A601AC01B201B801BE0154
:101C4000C401000000003502630190019D02F30110
:101C50009F01E50100000000F3035F010D0A002D64
:101C60002E2D2E002E2E2D2E002E2D2E2E002E2D22
:101C70002D2E002D2D2E2D002D2E2E2D002D2E2D16
:101C80002D002D2D2D2D2D002E2D2D2D2D002E2E08
:101C90002D2D2D002E2E2E2D2D002E2E2E2E2D00F4
:101CA0002E2E2E2E2E002D2E2E2E2E002D2D2E2EB3
:0E1CB0002E002D2D2D2E2E002D2D2D2D2E0033
:107E0000112484B714BE81FFF0D085E080938100F7
:107E100082E08093C00088E18093C10086E0809377
:107E2000C20080E18093C4008EE0C9D0259A86E02C
:107E300020E33CEF91E0309385002093840096BBD3
:107E4000B09BFECF1D9AA8958150A9F7CC24DD24C4
:107E500088248394B5E0AB2EA1E19A2EF3E0BF2EE7
:107E6000A2D0813461F49FD0082FAFD0023811F036
:107E7000013811F484E001C083E08DD089C08234E0
:107E800011F484E103C0853419F485E0A6D080C0E4
:107E9000853579F488D0E82EFF2485D0082F10E0AE
:107EA000102F00270E291F29000F111F8ED06801E7
:107EB0006FC0863521F484E090D080E0DECF843638
:107EC00009F040C070D06FD0082F6DD080E0C81688
:107ED00080E7D80618F4F601B7BEE895C0E0D1E017
:107EE00062D089930C17E1F7F0E0CF16F0E7DF06D8
:107EF00018F0F601B7BEE89568D007B600FCFDCFD4
:107F0000A601A0E0B1E02C9130E011968C91119780
:107F100090E0982F8827822B932B1296FA010C0160
:107F200087BEE89511244E5F5F4FF1E0A038BF0790
:107F300051F7F601A7BEE89507B600FCFDCF97BE46
:107F4000E89526C08437B1F42ED02DD0F82E2BD052
:107F50003CD0F601EF2C8F010F5F1F4F84911BD097
:107F6000EA94F801C1F70894C11CD11CFA94CF0C13
:107F7000D11C0EC0853739F428D08EE10CD085E9AC
:107F80000AD08FE07ACF813511F488E018D01DD067
:107F900080E101D065CF982F8091C00085FFFCCF94
:107FA0009093C60008958091C00087FFFCCF809118
:107FB000C00084FD01C0A8958091C6000895E0E648
:107FC000F0E098E1908380830895EDDF803219F02E
:107FD00088E0F5DFFFCF84E1DECF1F93182FE3DFCA
:107FE0001150E9F7F2DF1F91089580E0E8DFEE27F6
:047FF000FF270994CA
:027FFE00040479
:00000001FF
